:020000040800F2
:1000000068C60020A53C0008B1060008B306000839
:10001000B7060008BB060008BF0600080000000085
:10002000000000000000000000000000C3060008FF
:10003000C506000800000000C7060008C906000841
:10004000BF3C0008BF3C0008BF3C0008BF3C0008A4
:10005000BF3C0008BF3C0008BF3C0008BB3500089F
:10006000BF3C0008BF3C0008BF3C0008BF3C000884
:10007000BF3C000889320008BF3C0008BF3C0008B4
:10008000BF3C0008BF3C0008BF3C0008BF3C000864
:10009000BF3C0008BF3C0008BF3C0008BF3C000854
:1000A000BF3C0008BF3C0008BF3C0008BF3C000844
:1000B000BF3C0008BF3C00082D9F0008BF3C000863
:1000C000BF3C0008BF3C0008BF3C0008BF3C000824
:1000D000BF3C00081B3C0008EF390008BF3C00088B
:1000E000BF3C0008BF3C0008BF3C0008BF3C000804
:1000F000BF3C0008BF3C0008BF3C0008BF3C0008F4
:10010000BF3C0008E5280008BF3C0008BF3C0008D1
:10011000BF3C0008BF3C0008BF3C0008BF3C0008D3
:10012000BF3C0008BF3C0008BF3C0008BF3C0008C3
:1001300000F002F800F06BF80AA090E8000C82448E
:100140008344AAF10107DA4501D100F060F8AFF26B
:10015000090EBAE80F0013F0010F18BFFB1A43F0A5
:1001600001031847C0F40000E0F400000A444FF017
:10017000000C10F8013B13F0070408BF10F8014B06
:100180001D1108BF10F8015B641E05D010F8016B4B
:10019000641E01F8016BF9D113F0080F1EBF10F8AF
:1001A000014BAD1C0C1B09D16D1E58BF01F801CBD2
:1001B000FAD505E014F8016B01F8016B6D1EF9D555
:1001C0009142D6D37047000000230024002500266A
:1001D000103A28BF78C1FBD8520728BF30C148BFAA
:1001E0000B60704764290BF03F8375290BF03C834B
:1001F00078290BF0758363290BF0408673290BF087
:100200004586002070471FB51FBD10B510BD0BF00F
:10021000A1FE1146FFF7F7FF00F0C5F80BF0BFFE97
:1002200003B4FFF7F2FF03BC03F09CFC2DE9F0419F
:1002300004460D4617464126DF48007801280BD1B9
:1002400003F094FA06463246DB480178DBA00BF057
:10025000AFFA0020D8490870412E59D0342E11D061
:10026000352E02D0362E52D12FE04126287800F0CC
:10027000010018B128460AF0CEFE02E028460AF036
:10028000CFFE44E041262078401C20702078B84200
:1002900002DB2078401E2070CB494968227831F873
:1002A0001200CA4909680AF0FDFCC8480168C8A0E4
:1002B0000BF07EFAC82003F022FC2A46C7480168EA
:1002C000C24800680AF0B1FE21E041262078401EB5
:1002D0002070207810B92078401C2070BA494968F5
:1002E000227831F81200B94909680AF0DBFCB748F6
:1002F0000168B7A00BF05CFAC82003F000FC2A46A6
:10030000B6480168B14800680AF08FFE00BF00BF20
:10031000BDE8F08110B5B248007800F00100002877
:1003200040D0B048007801280FD10020AD490870B6
:10033000AD490880AD4B4FF48052AD480168A748E5
:10034000006807F0F9FBAB490870AA480078E8B9E3
:100350004FF40051A84803F026FE01280BD1A44910
:100360000968A14A1288881802F0F4FD9E480088A6
:1003700020309D4908809C480088B0F57E6F05DDDF
:100380000020994908800120964908709748008804
:10039000B0F5805F06DA00219048006807F00AFE99
:1003A0009449087010BD0EB500BF002002900024D3
:1003B00003F068FB4FF4A06003F094FC4FF4165078
:1003C00003F0DFFB03F077FA00F070FA02F08CFF25
:1003D00000F0B4FB02F06EFB002005F0C2FD03F05C
:1003E00039F909F02FF94FF4FA7003F088FB18E09F
:1003F00082A00BF0DDF94FF4FA7003F080FB4FF4AC
:10040000FA7003F07CFB8148006808B9012000E025
:1004100000207E4908607248007840F0040070496E
:10042000087001F08EFA0028E2D109F00BF94FF4C0
:100430008051002005F057FE6D4908604FF40A71A5
:10044000002005F050FE6549086040F2FF110020D1
:1004500005F049FE5D4908601CE06148007840F005
:1004600020005F4908700020684908604FF4FA7066
:1004700003F045FB6648D0F8940108B9012000E07C
:1004800000206249086063A00BF092F94FF4FA7003
:1004900003F035FB564800680028DED04F4800685E
:1004A0000028DAD005E060A00BF082F9C82003F044
:1004B00026FB0BF09DF80028F5D15F490122086862
:1004C0005EA107F04EFA5C49012248685CA107F082
:1004D00048FA10E05BA00BF06BF9C82003F00FFBAB
:1004E000C82003F00CFB4948006808B9012000E06F
:1004F0000020464908606A4601A958A009F046F95B
:100500000028E7D102F04DFC02F0B2FB54A00AF043
:100510003DFB04462C4920460AF072FBC82003F03C
:10052000EEFA294800688100002005F0DCFD054650
:100530002A4625494DA00AF0A2FC51A00BF038F93B
:100540004AA00AF099FD002002901F4949689DF8D1
:10055000082031F812001D4909680AF0A3FBC820E1
:1005600003F0CDFA02F05EFB02F01EFBB4204D4911
:10057000087002F008FD012002F018FE02F05EFD96
:1005800002F093FA012017490870002016490880EC
:1005900009490870124908700DE0012042490860BD
:1005A000FFF7B8FE00204149C1F8940122460C49EA
:1005B00002A8FFF73BFEF0E7520000202564406BE5
:1005C00065793D25630A0000180000201000002016
:1005D000706C61792D3E25730A0000000400002034
:1005E000140000200E000020080000200C00002055
:1005F000000000200A000020001001405344204366
:10060000617264204572726F72210A0094812142E6
:1006100000802142446174616275662F666D70339B
:10062000206572726F720A00466F6E742045727296
:100630006F72210A00000000B0000020303A000074
:10064000313A00005344204361726420466174666D
:1006500073204572726F72210A00000030000000A2
:10066000303A2F4D5553494300000000303A2F7364
:1006700079732F6C6F67696E666F2E7478740000E3
:100680000A2A2A2A2A2A2A2A2A2A2A2A2A2A2A2AEA
:100690002A2A2A2A2A2A2A2A2A2A2A2A2A2A2A2ABA
:1006A0002A2A0A0048000020940123420000234225
:1006B000704700BFFEE700BFFEE700BFFEE700BFD8
:1006C000FEE7704770477047704700000CB5002088
:1006D000019000906C48006840F480306A490860DE
:1006E00000BF6948006800F4003000900198401C89
:1006F0000190009818B90198B0F5A06FF1D1624847
:10070000006800F4003010B10120009001E00020EA
:1007100000900098012843D15C48006840F0100028
:100720005A4908600846006820F00300086008463F
:10073000006840F002000860534840685249486031
:100740000846406848600846406840F48060486059
:100750000846406820F47C1048600846406840F431
:10076000E81048600846006840F08070086000BFEC
:100770004548006800F000700028F9D04248406801
:1007800020F00300404948600846406840F00200FD
:10079000486000BF3C48406800F00C000828F9D1D0
:1007A0000CBD10B5FFF792FF10BD10B536480068BC
:1007B00040F0010034490860084640683449084068
:1007C0003149486008460068324908402E490860AF
:1007D0000846006820F4802008600846406820F43D
:1007E000FE0048604FF41F008860FFF7DAFF4FF00B
:1007F00000602949086010BD10B5002100200022CA
:10080000214B5B6803F00C0121B1042906D00829B3
:1008100028D107E0214B224C236027E01F4B204CBE
:10082000236023E0184B5B6803F47010164B5B6881
:1008300003F48032022303EB904022B9194B434367
:10084000174C23600DE0104B5B6803F4003323B1B9
:10085000144B4343124C236003E0104B4343104CB2
:10086000236003E00D4B0E4C236000BF00BF064B1E
:100870005B68C3F303130C4CE15C094B1B68CB4072
:10088000074C236010BD0000001002400020024011
:100890000000FFF8FFFFF6FE08ED00E000127A000E
:1008A0002000002000093D002400002008B501219F
:1008B000482003F0A1FD2020ADF8000010208DF8A5
:1008C000030003208DF802006946094803F0D8FAB6
:1008D0002021074803F081FB2020ADF80000694685
:1008E000044803F0CDFA2021024803F076FB08BD4E
:1008F000000C01400018014070B50546002405E0D9
:10090000601CC4B2C82C01DD002070BD02217748F4
:1009100003F025FF0028F3D02946744803F0CCFEED
:10092000002405E0601CC4B2C82C01DD0020ECE707
:1009300001216E4803F013FF0028F3D06B4803F049
:10094000BDFEC0B2E1E700B587B00121082003F089
:1009500053FD0121880303F05CFD4FF46040ADF8C6
:10096000180018208DF81B0003208DF81A0006A926
:100970005F4803F085FA4FF460415D4803F02DFBBA
:100980000020ADF804004FF48270ADF8060000209E
:10099000ADF808000220ADF80A000120ADF80C0007
:1009A0004002ADF80E003820ADF810000020ADF880
:1009B00012000720ADF8140001A94C4803F0A6FD71
:1009C00001214A4803F047FEFF20FFF795FF07B0DB
:1009D00000BD10B50446454800884FF6C771084071
:1009E00042490880084600882043088001213F488A
:1009F00003F031FE10BD00B587B0012141F20400C3
:100A000003F0FAFCE020ADF8180018208DF81B0068
:100A100003208DF81A0006A9364803F031FAE021C8
:100A2000344803F0DAFA0020ADF804004FF4827085
:100A3000ADF806000020ADF808000220ADF80A006D
:100A40000120ADF80C004002ADF80E003820ADF8E2
:100A500010000020ADF812000720ADF8140001A925
:100A6000254803F053FD0121234803F0F4FDFF2046
:100A7000FFF742FF07B000BD10B504461E480088CE
:100A80004FF6C77108401C4908800846008820437B
:100A900008800121184803F0DEFD10BD70B5054641
:100AA000002405E0601CC4B2C82C01DD002070BD2C
:100AB0000221114803F053FE0028F3D029460E48C6
:100AC00003F0FAFD002405E0601CC4B2C82C01DD6F
:100AD0000020ECE70121084803F041FE0028F3D094
:100AE000054803F0EBFDC0B2E1E70000003800402C
:100AF000000C0140000801400030014010B5002406
:100B00000020D14908609020FFF7F6FE0020FFF793
:100B1000F3FE0020FFF7F0FE0020FFF7EDFEFF20C0
:100B2000FFF7EAFE44EA0024FF20FFF7E5FE044356
:100B30000120C649C1F8B001204610BD08B5012109
:100B4000082003F059FC4FF48050ADF8000010204D
:100B50008DF8030003208DF802006946BC4803F0BD
:100B60008FF94FF48051BA4803F037FA0120B649A3
:100B70000860FFF7E8FE0020FFF72BFFFFF7BEFF3E
:100B8000B449088008BD10B500240020AE490860B3
:100B90000520FFF7B1FEFF20FFF7AEFE044601205F
:100BA000AA49C1F8B001204610BD10B50446002086
:100BB000A54908600120FFF79FFE2046FFF79CFE35
:100BC0000120A249C1F8B00110BD10B500209E4916
:100BD00008600620FFF790FE01209C49C1F8B00193
:100BE00010BD10B50020984908600420FFF784FE6E
:100BF00001209649C1F8B00110BD2DE9F04106462B
:100C00000C4617460020904908600320FFF774FE49
:100C1000C4F30740FFF770FEC4F30720FFF76CFE34
:100C2000E0B2FFF769FE002505E0FF20FFF764FE54
:100C30007055681C85B2BD42F7DB0120824908600F
:100C4000BDE8F08110B500BFFFF79DFF00F0010087
:100C50000028F9D110BD2DE9F04106460C46174693
:100C6000FFF7B3FF0020784908600220FFF744FE39
:100C7000C4F30740FFF740FEC4F30720FFF73CFE34
:100C8000E0B2FFF739FE002504E0705DFFF734FEA7
:100C9000681C85B2BD42F8DB01206B490860FFF794
:100CA000D1FFBDE8F0812DE9F04107460E4614461C
:100CB000F0B2C0F58075AC4200DC254612E02A4651
:100CC00031463846FFF7C7FFAC4200D10BE02F4456
:100CD0002E44601B84B2B4F5807F02DD4FF4807532
:100CE00000E02546EBE700BFBDE8F08110B5044603
:100CF000214659A00AF05CFD2403FFF766FFFFF7C9
:100D0000A1FF0020504908602020FFF7F5FDC4F343
:100D10000740FFF7F1FDC4F30720FFF7EDFDE0B258
:100D2000FFF7EAFD01204949C1F8B001FFF78AFF4A
:100D300010BD2DE9F05F81460F461646DFF820B161
:100D40004FEA1738C7F30B0ACAF58054A64200DCF5
:100D5000344644E04FEA08314FF480525846FFF7DA
:100D60004CFF002508E00AEB05001BF80000FF28F7
:100D700000D003E0681C85B2A542F4DB00BFA542A9
:100D800016DA4046FFF7B2FF002507E019F8050024
:100D900005EB0A010BF80100681C85B2A542F5DBE2
:100DA0004FEA08314FF480525846FFF77CFF04E0C9
:100DB000224639464846FFF776FFA64200D10FE0AB
:100DC00008F101084FF0000AA1442744301B86B205
:100DD000B6F5805F02DD4FF4805400E03446B9E799
:100DE00000BFBDE8F09F10B5FFF7EFFEFFF72AFF49
:100DF000002015490860C720FFF77EFD0120134938
:100E0000C1F8B001FFF71EFF10BD10B500200E495C
:100E10000860B920FFF770FD01200C49C1F8B0014E
:100E2000032002F048FE10BD10B5002006490860FE
:100E3000AB20FFF761FD01200449C1F8B001032098
:100E400002F039FE10BD0000B08121420080214235
:100E5000000C01403400002066653A25780D0A0038
:100E60002802002001460020012900D011B9FE4BC4
:100E7000197000E0262070470146FC4A506820F0B7
:100E8000FF0008435060704770B5044605E0F7481E
:100E9000456B05F0450000B100E0F8E700BF042015
:100EA00004F095FF20B1042004F09BFF032070BDE7
:100EB000012004F08CFF20B1012004F092FF0120FA
:100EC000F5E7EA480069A04201D01020EFE740F2C0
:100ED000FF50E64988630846406908210840C0B2CF
:100EE000E5E72DE9FC4107460D46002600240020D9
:100EF000009001900820DE490860102048604020E2
:100F000088600020C8604FF480600861084604F0E3
:100F1000E7FE1020FFF7B8FF044614B12046BDE8F5
:100F2000FC81D44800880004D1490860372048601B
:100F3000402088600020C8604FF480600861084647
:100F400004F0CEFE3720FFF79FFF04460CB1204689
:100F5000E5E74FF0FF30C8490860082048603020BE
:100F600088600220C86000200861012048610846AE
:100F700004F0DFFE0020BE490860332048604020B6
:100F800088600020C8604FF480600861084604F063
:100F9000A7FE3320FFF778FF04460CB12046BEE7DA
:100FA0000CE04FF4001004F012FF38B104F0E3FE3F
:100FB0004DF82600761C022E00D306E0AB48406BAD
:100FC00040F22A6108400028EBD000BF082004F05E
:100FD000FEFE20B1082004F004FF04209FE7022059
:100FE00004F0F5FE20B1022004F0FBFE022096E79B
:100FF000202004F0ECFE20B1202004F0F2FE0620B8
:101000008DE74FF4007004F0E2FE28B14FF4007059
:1010100004F0E7FE072082E740F2FF5004F0E1FE13
:1010200000980006009901F47F4140EA01200099F0
:1010300001F47F0140EA1120009940EA11606860E4
:1010400001980006019901F47F4140EA01200199CD
:1010500001F47F0140EA1120019940EA1160286003
:1010600020465CE77CB505460024002000900190F6
:1010700000260DB1022600E000267C48406900F001
:10108000007008B10E207CBD7A49098888B2694693
:10109000FFF727FF04460CB12046F4E7019800F45F
:1010A000802060B3734800880004714908603720CD
:1010B0004860402088600020C8604FF4806008616C
:1010C000084604F00DFE3720FFF7DEFE04460CB1A3
:1010D0002046D8E7664806600620654948604020FB
:1010E00088600020C8604FF480600861084604F002
:1010F000F7FD0620FFF7C8FE04462046C3E725207B
:10110000C1E770B5044600255C480078032801D18A
:10111000272070BD5948007838B158480078012818
:1011200003D056480078022818D1022C01D327207A
:10113000EFE7E0B2FFF796FF05467DB94B48406800
:1011400020F4C0504949486008464068A1B240EACE
:10115000C120464948600846406848602846D8E7AC
:1011600010B50446424804600720414948604020C9
:1011700088600020C8604FF480600861084604F071
:10118000AFFD0720FFF780FE10BDF0B5014600203F
:1011900000223A4B1B7881F85630364B1B88A1F859
:1011A0005430374B1B681A0E93090B70C2F383033C
:1011B0004B7002F003038B70314B1B68C3F3074283
:1011C000CA702F4B1B88C3F307220A712C4B1A7865
:1011D0004A715B681A0E1301CB80294B5B68C3F31D
:1011E0000742CB8843EA1213CB8002F00F030B7245
:1011F000234B9B88C3F30722D3094B72C2F380139E
:101200008B72C2F34013CB72C2F300130B73002333
:101210004B731A4B1B783BB1184B1B78012B03D037
:10122000164B1B78032B5ED193071B0D0B61144BE0
:101230001A790B6943EA82030B61114B9B681A0E02
:101240000B6943EA92130B61C2F3C2030B7502F000
:1012500007034B750A4B9B68C3F3074253098B7511
:10126000C2F38203CB750DE04000002000800140F6
:10127000401200203C0000205412002038000020C2
:101280006C12002093075B0F0B76F74B1B89C3F39F
:1012900007220B7E43EAD2130B760B695B1C0024FA
:1012A000C1E912340B7E9B1C012404FA03F3DC1702
:1012B000D1E91256A5FB037C06FB03C305FB0433EF
:1012C000C1E912730C7A0123A3400B650024D1E914
:1012D00012650B6DA6FB037C05FB03C306FB043301
:1012E000C1E912732EE0E14B1B78022B2AD1DE4BB1
:1012F0001A7993069B0A0B61DB4B9B681A0E0B69EC
:1013000043EA02230B61D84B9B68C3F307420B6986
:1013100013430B61D44B1B89C3F307220B695B1C7E
:101320004FF40074A3FB04464FF480630025A4FB34
:10133000037C06FB03C304FB0533C1E912734FF4BE
:1013400000730B65C2F3801301F8193F93065B0E1F
:101350004B70C54B1A7A4B7843EAD2134B7002F0AC
:101360007F038B70C04BDB681A0ED309CB70C2F3BE
:1013700041130B71C2F382034B7193071B0F8B71E7
:10138000B94BDB68C3F307428B7943EA92138B7145
:10139000C2F34013CB7100230B7202F001034B72B6
:1013A000B14B9B89C3F30722D3098B72C2F380131D
:1013B000CB72C2F340130B73C2F300134B73C2F32F
:1013C00081038B7302F00303CB73A74B1A7B530883
:1013D0000B7401234B74A64B1B681A0ECA7419397F
:1013E000A34B1B68C3F307421402CC85A04B1B8898
:1013F000C3F30722CB8D1343CB859D4B1A7814067C
:101400000C635B681A0E0B6B43EA02440C63984B47
:101410005B68C3F307420B6B43EA02240C63944BF3
:101420009B88C3F307220B6B13430B63904B1A7912
:1014300034235A548E4B9B681A0E35235A548C4BC6
:101440009B68C3F3074214068C63894B1B89C3F363
:1014500007228B6B43EA02448C63854B1A7A8B6BB1
:1014600043EA02248C63824BDB681A0E8B6B1343B6
:101470008B637F4BDB68C3F307423C235B5C43EA2F
:1014800012143C235C5413071C0DCC87784B9B89AA
:10149000C3F30722CB8F1343CB87754B1A7B5408BA
:1014A00040235C54012441235C54F0BD70B50026F8
:1014B0004FF4803505E06F48446B04F0450000B1FF
:1014C00003E0281EA5F10105F5D100BF15B104F018
:1014D000040028B10326042004F083FC304670BDCC
:1014E000012004F074FC18B10126012004F079FCFD
:1014F00040F2FF5004F075FC3046F0E72DE9F04172
:1015000005460E464FF0000805E05A48476B07F0C5
:10151000450000B100E0F8E700BF042004F057FCEC
:1015200028B1042004F05DFC0320BDE8F081012017
:1015300004F04DFC20B1012004F053FC0120F4E73D
:101540004C480069A84201D01020EEE740F2FF505D
:1015500004F047FC4748446904F4604018B9200C83
:1015600030804046E1E704F4005008B11320DCE786
:1015700004F4804008B11020D7E704F4004008B11B
:101580000F20D2E74046D0E738B500240120009074
:1015900004F091FB08B9252038BD344800780428B0
:1015A00021D000203449086002204860C0208860B3
:1015B0000020C8604FF480600861084604F090FB8A
:1015C000FFF774FF04460CB12046E5E7294840695F
:1015D000274908602748806948602648C0698860B4
:1015E0002448006AC8602148007858B11F48007834
:1015F000012807D01D480078062803D01B48007832
:10160000022816D100201C490860032048604020B1
:1016100088600020C8604FF480600861084604F0CC
:101620005FFB69460320FFF769FF04460CB12046C3
:10163000B2E70E480078032820D1BDF8000000046E
:101640000D49086003204860402088600020C86081
:101650004FF480600861084604F042FBFFF726FF64
:1016600004465CB1204697E76C1200203800002049
:101670007C1200200080014040120020FE480078CB
:10168000042827D0BDF80000FC490860BDF8000020
:101690000004FB49086009204860C02088600020E1
:1016A000C8604FF480600861084604F019FBFFF73A
:1016B000FDFE04460CB120466EE7F2484069F2494F
:1016C0000860F04880694860EE48C0698860ED486D
:1016D000006AC86000205FE710B505E0E948446B88
:1016E00004F0450000B100E0F8E700BF042004F07A
:1016F0006EFB20B1042004F074FB032010BD40F207
:10170000FF5004F06EFB0020F8E770B500264FF4A0
:10171000803505E0DB48446B04F0450000B103E090
:10172000281EA5F10105F5D100BF15B104F0040094
:1017300028B10326042004F054FB304670BD04F0A9
:10174000400018B10026402004F04BFB3046F5E77E
:1017500070B500254FF4803404E0802004F037FB9E
:1017600000B103E0201EA4F10104F6D100BF0CB9C2
:10177000032070BD40F2FF5004F033FB2846F8E729
:101780002DE9F0470027002400260025A046A146A9
:10179000B220BE4908750020086048608860C860B3
:1017A0000861084604F05CFA032004F079FA01208D
:1017B00004F073FA00BF12E00020B14908604860ED
:1017C0008860C8604FF480600861084604F088FAB9
:1017D000FFF7BEFF044604B903E0781CC7B24A2FE6
:1017E000EADB00BF14B12046BDE8F0874FF4D570A6
:1017F000A349086008204860402088600020C86035
:101800004FF480600861084604F06AFAFFF77DFF34
:10181000044624B90120984908704FF080490020FF
:101820009749086037204860402088600020C860E1
:101830004FF480600861084604F052FA3720FFF741
:1018400023FB0446002C4BD134E000208C49086077
:1018500037204860402088600020C8604FF48060D6
:101860000861084604F03CFA3720FFF70DFB0446F8
:101870000CB12046B8E7864849EA00008049086074
:1018800029204860402088600020C8604FF48060B4
:101890000861084604F024FAFFF71EFF04460CB165
:1018A0002046A1E777484669012080EAD67080F09B
:1018B00001086D1CB8F1000F03D14FF6FF7085428F
:1018C000C3D34FF6FF70854202D31B2420468BE71B
:1018D00006F08040061E32D00220674908702EE0D4
:1018E0001CE06C4866490860012048604020886020
:1018F0000020C8604FF480600861084604F0F0F9E9
:10190000FFF7EAFE04460CB120466DE75D484669E4
:10191000012080EAD67080F001086D1CB8F1000F3C
:1019200003D14FF6FF708542DBD34FF6FF7085423F
:1019300002D31B24204657E703204F490870204656
:1019400052E77CB5002500240121302002F054FD2F
:10195000012140F2024002F042FD4FF4F850ADF890
:10196000000018208DF8030003208DF8020069465E
:10197000494802F085FA0420ADF8000018208DF8DF
:10198000030003208DF802006946444802F078FA0B
:101990008020ADF8000048208DF8030003208DF86A
:1019A000020069463D4802F06BFA04F04BF9312021
:1019B0008DF8040000208DF805008DF80600012048
:1019C0008DF8070001A802F092F9FFF7D9FE04464E
:1019D00014B9FFF7D9FD04461CB93148FFF7D5FB10
:1019E000044634B92E49B1F854100804FFF7B8FB87
:1019F00004461CB90120FFF784FB04461CB11E48B5
:101A00000078032812D1264890F8560020B12448C7
:101A100090F85600012801D10A2500E00425284647
:101A2000FFF72AFA0020FFF71DFA044620467CBD86
:101A300010B5002004F034F9002010BD70B58CB052
:101A400006460C4615460121022002F0C8FC154846
:101A500003F0CEFF0021134804F097F809488030C6
:101A6000019002960395A008049000200590802024
:101A700006908000079017E0380000203C0000200E
:101A800040120020008001406C120020281200202B
:101A9000000010800080FF80001001400014014011
:101AA0009012002044040240800008900020099019
:101AB0004FF400500A9000200B9001A9FA4804F05E
:101AC00039F80021F84804F060F80CB070BD014608
:101AD000002002E04910421CD0B20129FAD170471F
:101AE0002DE9F84F8146174698460A9C4FF0000AA8
:101AF000D3464D464FF0FF36B9F1000F02D12620F4
:101B0000BDE8F88F0020E949C862E948007802285A
:101B100005D10402780A40EAC8574FEA6828002035
:101B2000E44988604860401E086001204861002048
:101B3000C8600861084604F0FCF8DC48406900F021
:101B4000007008B10E20DBE7002C21DDB4F5006F3A
:101B50001EDC601E2040D8B92046FFF7B8FF009079
:101B6000D54804601020D449486040208860002097
:101B7000C8604FF480600861084604F0B1F8102096
:101B8000FFF782F98246BAF1000F03D05046B7E75B
:101B90002620B5E700980001C649886008464460E1
:101BA0004FF0FF300860012048610220C86000202B
:101BB0000861084604F0BDF8BF4807601120BE491F
:101BC0004860402088600020C8604FF48060086151
:101BD000084604F085F81120FFF756F98246BAF15D
:101BE000000F01D050468BE7B448007800285AD146
:101BF00001F0B4FF18E04FF4004004F0E8F878B1C9
:101C00004FF0000B06E0A9488030006845F82B0033
:101C10000BF1010BBBF1080FF5D32035A84E03E003
:101C20000EB904206CE7761EA048406B40F22A6192
:101C300008400028DFD0082004F0C9F820B10820AF
:101C400004F0CFF804205BE7022004F0C0F820B1D4
:101C5000022004F0C6F8022052E7202004F0B7F872
:101C600020B1202004F0BDF8062049E74FF40070B1
:101C700004F0ADF828B14FF4007004F0B2F807207A
:101C80003EE703E004F077F828602D1D4FF40010C4
:101C900004F09DF80028F5D101F062FF40F2FF50FA
:101CA00004F09FF832E08548007801282ED1002208
:101CB00021464846FFF7C2FE00208249087082494B
:101CC0000870824908707948C06B40F22A31084395
:101CD0007649C863012004F000F800E0761E7248DF
:101CE0004438006800F4005038B97848007820B9CA
:101CF0007448007808B9002EF0D10EB90420FFE630
:101D00007048007810B16F4890F800A05046F7E690
:101D10002DE9FF5F17469846DDE90E464FF00009B2
:101D2000CA464FF0FF356A490098086000205F49B5
:101D3000C8625F480078022805D10402780A40EAA8
:101D4000C8574FEA682800205A4988604860401EFA
:101D50000860012048610020C8600861084603F05F
:101D6000E8FF5248406900F0007018B10E2004B03E
:101D7000BDE8F09F002C21DDB4F5006F1EDC601E75
:101D80002040D8B92046FFF7A2FE83464A480460A7
:101D9000102049494860402088600020C8604FF406
:101DA00080600861084603F09BFF1020FFF76CF885
:101DB0008146B9F1000F03D04846D8E72620D6E780
:101DC000012E70D906FB04F0B0F1007F01D326206C
:101DD000CDE74FEA0B103749886006FB04F04860F6
:101DE0004FF0FF300860012048610220C8600020E9
:101DF0000861084603F09DFF2F48076012202E4916
:101E00004860402088600020C8604FF4806008610E
:101E1000084603F065FF1220FFF736F88146B9F156
:101E2000000F01D04846A2E72448007800287DD161
:101E300001F094FE1EE04FF4004003F0C8FFA8B18B
:101E40004FF0000A08E0194880300068204909680E
:101E500041F82A000AF1010ABAF1080FF3D31C482D
:101E6000006820301A490860154D03E00DB90420C0
:101E70007DE76D1E0D48406B40F22A310840002876
:101E8000D9D0082003F0A3FF20B1082003F0A9FF58
:101E900004206CE7022003F09AFFD8B1022003F07F
:101EA000A0FF022063E7A4E0440402400080014058
:101EB0003800002054120020401200204000002072
:101EC000FFFF7F004200002041000020430000206F
:101ED00044000020202003F07AFF20B1202003F0EE
:101EE00080FF062043E74FF4007003F070FF28B135
:101EF0004FF4007003F075FF072038E709E003F0A6
:101F00003AFFFA4909680860F8480068001DF74977
:101F100008604FF4001003F05AFF0028EFD14FF48F
:101F2000807003F054FF20B3F14800E028E000780F
:101F300038B1EF480078012803D0ED480078022836
:101F400017D10020EB4908600C20486040208860D1
:101F50000020C8604FF480600861084603F0C0FEAE
:101F60000C20FEF791FF8146B9F1000F01D04846E1
:101F7000FDE601F0F5FD40F2FF5003F032FF38E0DE
:101F8000DD480078012834D106FB04F100220098D6
:101F9000FFF754FD0020D94908700120D849087086
:101FA0000020D8490870D848C06B40F22A31084355
:101FB000D549C8630846C06A40F00800C86200E01E
:101FC0006D1ED248006800F4005008B9002DF7D10A
:101FD0000DB90420CBE600BFCA48007818B9C7483D
:101FE00000780028F8D0C548007810B1C34890F8B0
:101FF00000904846BBE61CB50446002001900090C6
:10200000C34800880004BB4908600D204860402098
:1020100088600020C8604FF480600861084603F0C3
:102020005FFEB948406B009002E0B748406B0090FB
:10203000009800F045000028F7D0012003F0C7FE0B
:1020400020B1012003F0CDFE01201CBD042003F0CF
:10205000BEFE20B1042003F0C4FE0320F5E7AA4829
:1020600000690D2801D01020EFE740F2FF5003F087
:10207000B8FEA548406901900198C0F34320207044
:102080000020E2E72DE9FF5F86B017469846149DD1
:10209000002600200590049000248146039082468B
:1020A00002900195DDF818B0DDF818B0BBF1000F13
:1020B00003D126200AB0BDE8F09F00209249C862F3
:1020C000944988604860401E0860012048610020F3
:1020D000C8600861084603F02CFE8B48406900F098
:1020E000007008B10E20E5E781480078022805D18C
:1020F0000502780A40EAC8574FEA6828002D1FDD1C
:10210000B5F5006F1CDC681E2840C8B92846FFF7EB
:10211000DEFC059077480560102076494860402035
:1021200088600020C8604FF480600861084603F0B2
:10213000D7FD1020FEF7A8FE06461EB13046B9E7CF
:102140002620B7E77248008800046A4908600D201D
:102150004860402088600020C8604FF480600861BB
:10216000084603F0BDFD0D20FEF78EFE06460EB1BB
:1021700030469FE76448406903904FF0FF341BE00E
:10218000641E6348008800045A4908600D204860B6
:10219000402088600020C8604FF4806008610846D5
:1021A00003F09EFD0D20FEF76FFE06460EB1304691
:1021B00080E7554840690390039800F4807008B99F
:1021C000002CDDD10CB9292074E74A48076018209B
:1021D00048494860402088600020C8604FF4806013
:1021E0000861084603F07CFD1820FEF74DFE064608
:1021F0000EB130465EE700204149087005980001A5
:1022000044498860084645604FF0FF30086001206F
:1022100048610020C8600861084603F08AFD4FF05D
:10222000FF343548007800285FD101F097FC43E087
:102230004FF4804003F0CBFDC8B30198A0EB090038
:10224000202821D20198A0EB090000F0030020B95A
:102250000198A0EB0900800804E00198A0EB0900B8
:102260008008401C02904FF0000A09E0DBF80000F3
:1022700003F085FD0AF1010A0BF1040B09F10409D1
:1022800002988245F2D30FE04FF0000A05E05BF8B8
:102290002A0003F074FD0AF1010ABAF1080FF6D31F
:1022A0000BF1200B09F120096FF0404404E0FFE737
:1022B0000CB90420FEE6641E1348406B40F21A611C
:1022C00008400028B4D0082003F081FD20B1082088
:1022D00003F087FD0420EDE6022003F078FDD8B17D
:1022E000022003F07EFD0220E4E630E044000020FE
:1022F0003800002040120020400000204200002052
:102300004100002043000020008001400004024002
:102310003C00002054120020102003F058FD20B192
:10232000102003F05EFD0520C4E64FF4007003F0BA
:102330004EFD28B14FF4007003F053FD0720B9E6BD
:1023400001F00EFC40F2FF50FC4988633EE0FC487F
:10235000007801283AD1102229460698FFF76EFB33
:102360000020F8490870F8490870F8490870F348E7
:10237000C06B40F21A310843F049C8630846C06A8E
:1023800040F00800C86200E0641EF148006800F4F4
:10239000005008B9002CF7D11CB9FFF7D2FA04207D
:1023A00088E64FF0FF3400E0641EE848007820B96A
:1023B000E448007808B9002CF6D10CB9042079E67D
:1023C000E048007810B1DF48007873E640F2FF5033
:1023D00003F007FD04A8FFF70EFE064603E004A87D
:1023E000FFF709FE06463EB99DF810000728F6D013
:1023F0009DF810000628F2D030465BE62DE9FF5F1D
:1024000084B0DDE9124700260020039002900025E9
:1024100080468146019007FB04FBDDF810A0DDF843
:1024200010A0BAF1000F03D1262008B0BDE8F09F3C
:102430000020C249C862C74988604860401E0860E1
:10244000012048610020C8600861084603F071FC63
:10245000BA48406900F0007008B10E20E5E7BE48B8
:102460000078022808D10402DDE90601400A40EAAA
:10247000C1504912CDE90601002C1FDDB4F5006FF3
:102480001CDC601E2040C8B92046FFF720FB0390EB
:10249000B24804601020B1494860402088600020A4
:1024A000C8604FF480600861084603F019FC1020F2
:1024B000FEF7EAFC06461EB13046B6E72620B4E732
:1024C000012F6FD907FB04F0B0F1007F01D3262064
:1024D000ABE7A148007838B19F480078012803D0C5
:1024E0009D48007802282DD19D48008800049B4912
:1024F000086037204860402088600020C8604FF4A2
:1025000080600861084603F0EBFB3720FEF7BCFC57
:1025100006460EB1304688E79048076017208F497D
:102520004860402088600020C8604FF480600861E7
:10253000084603F0D5FB1720FEF7A6FC06460EB1B1
:10254000304672E7854906980860192048604020A7
:1025500088600020C8604FF480600861084603F07E
:10256000BFFB1920FEF790FC06460EB130465CE733
:10257000039800017749886007FB04F048604FF03A
:10258000FF300860012048610020C86008610846EB
:1025900003F0CFFB6A480078002871D1451E01F096
:1025A000DDFA40E0F3E06548406B00F48040A8B3FA
:1025B000ABEB080020281ED2ABEB080000F00300B4
:1025C00018B9ABEB0800800803E0ABEB080080080B
:1025D000401C01904FF0000909E0DAF8000003F018
:1025E000CEFB09F101090AF1040A08F10408019877
:1025F0008145F2D30FE04FF0000905E05AF82900B9
:1026000003F0BDFB09F10109B9F1080FF6D30AF196
:10261000200A08F120086FF0404504E0FFE70DB9FB
:10262000042002E76D1E4548406B40F21A31084015
:102630000028B8D0082003F0CAFB20B1082003F01E
:10264000D0FB0420F1E6022003F0C1FB20B1022000
:1026500003F0C7FB0220E8E6102003F0B8FB20B12E
:10266000102003F0BEFB0520DFE64FF4007003F0FE
:10267000AEFB30B14FF4007003F0B3FB0720D4E69B
:102680002CE04FF4807003F0A2FB00B332480078D6
:1026900038B131480078012803D02F48007802284B
:1026A00015D100202D4908600C204860402088602A
:1026B0000020C8604FF480600861084603F010FBFA
:1026C0000C20FEF7E1FB06460EB13046ADE601F008
:1026D00047FA40F2FF5003F084FB58E018480078B6
:1026E000012854D107FB04F110220498FFF7A6F942
:1026F0000020144908700120134908700020134974
:1027000008700E48C06B40F21A3108430B49C86389
:102710000846C06A40F00800C8624FF0FF3500E08C
:102720006D1E0B48006800F4005008B9002DF7D169
:10273000C5B9FFF706F9042077E6000000800140E4
:102740004000002042000020410000204300002003
:1027500000040240541200203800002040120020E3
:102760003C0000204FF0FF3500E06D1EC2480078AD
:1027700020B9C248007808B9002DF6D10DB904205F
:1027800053E6BE48007810B1BC4800784DE640F2F0
:10279000FF5003F026FB02A8FFF72DFC064603E0DE
:1027A00002A8FFF728FC06463EB99DF80800072856
:1027B000F6D09DF808000628F2D0304635E610B570
:1027C000AF48406B00F4807070B3AE4800780128C9
:1027D00014D10020AC4908600C204860402088607B
:1027E0000020C8604FF480600861084603F078FA62
:1027F0000C20FEF749FBA149087002E000209F4928
:1028000008709F48806B40F480709D49886308463B
:10281000C06B4CF23A3188439949C863012096490C
:1028200008709648007810BD022003F0D0FA68B115
:10283000022003F0D6FA9248C06B4CF23A3188433A
:102840008F49C86302208D490870ECE7082003F027
:10285000BEFA68B1082003F0C4FA8948C06B4CF294
:102860003A3188438649C863042084490870DAE70E
:10287000202003F0ACFA68B1202003F0B2FA8048BF
:10288000C06B4CF23A3188437D49C86306207B49CE
:102890000870C8E7102003F09AFA68B1102003F01E
:1028A000A0FA7748C06B4CF23A3188437449C86348
:1028B000052072490870B6E74FF4007003F087FAFC
:1028C00070B14FF4007003F08CFA6D48C06B4CF29D
:1028D0003A3188436A49C863072068490870A2E70B
:1028E0000020A0E710B5FFF76AFF10BD70B50446E1
:1028F000002514B92625284670BD644800880004C8
:10290000614908600D204860402088600020C86050
:102910004FF480600861084603F0E2F90D20FEF7ED
:10292000B3FA05460DB12846E6E7554840692060F0
:102930002846E1E708B5002000906846FFF7D6FF7B
:1029400008B1FF2008BD0098C0F34320FAE72DE945
:10295000FE4F83460C4691460020029000262546F5
:102960002C46700240EAD5566D020BF00300F0B120
:102970004FF0000A18E04FF4007000904FEA4A2030
:10298000471946EBE0733A464148FFF7A9F8029031
:102990004FF400723E49584609F00DF90BF5007BE3
:1029A0000AF1010000F0FF0ACA45E4DB16E0B9F1C4
:1029B000010F09D14FF400702A4633460090584663
:1029C000FFF78EF8029009E04FF400702A46334674
:1029D000CDE900095846FFF79BF902900298BDE83F
:1029E000FE8F2DE9FE4F81460C4692460020029054
:1029F000002625462C46700240EAD5566D0209F0A5
:102A00000300F0B14FF0000B18E04FF4007249469C
:102A10001F4809F0D0F84FF4007000904FEA4B20A7
:102A2000471946EBE0733A461948FFF72BFB029033
:102A300009F500790BF1010000F0FF0BD345E4DB51
:102A400016E0BAF1010F09D14FF400702A4633465F
:102A500000904846FFF716FB029009E04FF4007023
:102A60002A463346CDE9000A4846FFF7C7FC0290E4
:102A70000298BDE8FE8F00004300002042000020C5
:102A80000080014041000020401200203C00002056
:102A9000E812002010B504462046FDF7FFFF10BDE8
:102AA00010B52020FDF7E8FF10BD10B51020FDF790
:102AB000E3FF10BD08B50121D02001F09DFC4FF4CB
:102AC0000050ADF8000048208DF8030003208DF879
:102AD00002006946FE4801F0D3F94020ADF800003D
:102AE00010208DF803006946FA4801F0C9F9C020AA
:102AF000ADF8000010208DF803006946F64801F09B
:102B0000BFF9FDF778FF08BD70B505460C4600BF5C
:102B1000F24800680028FBD0FFF7C2FF0120F0490F
:102B200008600020EF49C1F89C010220FFF7B2FFC6
:102B30002846FFF7AFFF2012FFF7ACFFE0B2FFF728
:102B4000A9FF0120E649091D0860FFF7AEFF70BD2F
:102B500070B50546002400BFE04800680028FBD09F
:102B6000FFF79EFF0120DE4908600020DD49C1F823
:102B70009C010320FFF78EFF2846FFF78BFFFF2005
:102B8000FFF788FF04464FF6FF7000EA0424FF2099
:102B9000FFF780FF204484B20120D149091D08605D
:102BA000FFF783FF204670BD10B5002400BFCB485F
:102BB00000680028FBD0FF20FFF76CFF00240DE029
:102BC00040F604010020FFF79FFF022000F097FF6E
:102BD0002046611CCCB2642800DD05E00020FFF730
:102BE000B7FFB0F5006FEBD100BF00BFBB48006876
:102BF0000028FBD000240AE04FF418410320FFF71F
:102C000083FF2046611CCCB2642800DD05E0032070
:102C1000FFF79EFFB0F5184FEED100BF142000F073
:102C20006EFF10BD10B500240020AF4908601420CD
:102C300000F065FF0120AB49C1F89801A849091DC2
:102C40000860AA49C1F8980104E0601CC4B23220AF
:102C500000F031FFA148006808B9C82CF5DB14204A
:102C600000F04DFFC82C01DB012010BD0020FCE767
:102C700010B5FFF7D7FF42F220010B20FFF744FF0A
:102C80004FF402610020FFF73FFF00BF9348006848
:102C90000028FBD0FFF704FF002091490860532073
:102CA000FFF7F8FEEF20FFF7F5FE6E20FFF7F2FECC
:102CB0002420FFF7EFFE0020FFF7ECFE0020FFF7D7
:102CC000E9FE0020FFF7E6FE0020FFF7E3FE6420A8
:102CD00000F015FF01208349C1F8980100208049C8
:102CE00008604520FFF7D6FE7820FFF7D3FE692065
:102CF000FFF7D0FE7420FFF7CDFE0020FFF7CAFEDD
:102D00000020FFF7C7FE0020FFF7C4FE0020FFF7FA
:102D1000C1FE642000F0F3FE01207149086000202C
:102D200008605320FFF7B6FEEF20FFF7B3FE6E20DA
:102D3000FFF7B0FE4420FFF7ADFE0020FFF7AAFE2C
:102D40000020FFF7A7FE0020FFF7A4FE0020FFF7FA
:102D5000A1FE642000F0D3FE01206149086000203C
:102D600008604520FFF796FE7820FFF793FE692064
:102D7000FFF790FE7420FFF78DFE0020FFF78AFE1C
:102D80000020FFF787FE0020FFF784FE0020FFF7FA
:102D900081FE642000F0B3FE01205249C1F8980181
:102DA00010BD10B5FFF73EFF4FF402610020FFF7A2
:102DB000ABFE00BF494800680028FBD0FFF770FE5B
:102DC0000020474908604D20FFF764FEEA20FFF726
:102DD00061FE6D20FFF75EFE5420FFF75BFE0020D2
:102DE000FFF758FE0020FFF755FE0020FFF752FEC8
:102DF0000020FFF74FFE962000F081FE01203949A8
:102E0000C1F898010820FFF7A3FE10BD10B50446D5
:102E1000FFF74BFE0020324908602046FFF73AFEDC
:102E200001203049C1F8980110BD70B50446214613
:102E30000720FFF769FE0620FFF78AFE05462846B1
:102E400070BD70B504460D4621460720FFF75CFEB5
:102E500000BF224800680028FBD029460620FFF763
:102E600053FE70BD10B50446214641F60460FFF7DD
:102E7000E8FF10BD70B50820FFF76AFE054609207F
:102E8000FFF766FE044644F66771601A8C421DD057
:102E90000DDCA4F58040A0F5A270A8B1102812D0D6
:102EA000B0F53F6F11D0B0F5416F38D10AE0A0F214
:102EB000E67060B1A0F6FF60D8B1A0F58050193877
:102EC00068BB00BF00BF00BF00BF00BF00BF0FE076
:102ED0000010014000180140001C01403401224252
:102EE000988123420080234298012342000023421C
:102EF00000BF68001921B0FBF1F40A20B4FBF0F127
:102F000000FB1140052805D90A20B4FBF0F0401C55
:102F100080B270BD0A20B4FBF0F080B2F9E7E4089B
:102F200004F00304032C01D1012400E00024AA488A
:102F300000EB4410290B30F81100EAE710B541F618
:102F40000560FFF772FF10BD10B541F60660FFF790
:102F50006CFF10BD70B50546A048006878B1002030
:102F60009F490860002404E0285DFFF793FD601C82
:102F7000C4B2202CF8DB01209949086001E001204F
:102F800070BD0020FCE770B588B0002604E000208A
:102F90000DF80600701CC6B2202EF8DB0020FFF7EB
:102FA000D7FD044644F0080444F004042146002000
:102FB000FFF7AAFD00250EE06846FFF7CBFF50B9EA
:102FC00005F1200085B20020FFF7C2FD044604F0A1
:102FD000080000B902E0B5F5006FEDDB00BFB5F504
:102FE000006F19DAFFF7B0FFC4B2002604E0E0B2C8
:102FF0000DF80600701CC6B2202EF8DB002506E096
:103000006846FFF7A7FF10B905F1200085B240F62A
:1030100004008542F4DB01E0FFF7C6FD0820FFF75E
:1030200097FD04460920FFF793FD204484B21CB1AC
:10303000FFF7F8FDFFF7B8FD08B070BD10B500212F
:103040000420FFF761FD00210420FFF75DFD10BDA6
:1030500010B500240420FFF77BFD0446204610BD78
:103060002DE9F0470446884600252DE02846691CD6
:103070008DB234F810702846691C8DB234F8106097
:1030800006F4004088B1C6F30E062846691C8DB2CE
:1030900034F8109003E0F8B24946FFF735FD301ED2
:1030A000A6F101018EB20FD0F5E708E02846691CB1
:1030B0008DB234F81090F8B24946FFF725FD301E66
:1030C000A6F101018EB2F1D14545CFDBBDE8F08715
:1030D00070B505460024C5F1FE0084B24FF6FF70BE
:1030E00000EA0424C5F1FE00204484B221460B20EE
:1030F000FFF70AFD70BD2DE9F04706460F469046E2
:103100001D460024A14605B90AE0082D04DDA5F1FD
:1031100008004FFA80F903E0A5F109004FFA80F9A1
:1031200009F00F044FF6FF7000EA041408F00F00D6
:1031300004444FF6FF7000EA041407F00F00044443
:103140004FF6FF7000EA041406F00F00204484B22A
:1031500021460220FFF7D8FCBDE8F08770B5054690
:103160000020FFF7F5FC044605F0010010B144F023
:10317000100401E024F0200405F0020010B144F036
:10318000800401E024F0800421460020FFF7BCFC0D
:1031900070BD10B5044610214CF21700FFF751FE28
:1031A00021014CF21900FFF74CFE10BD70B504462A
:1031B0000C490878FFF78CFF0A4D2B79EA78A9783B
:1031C0006878FFF798FF29464879FFF7C7FF204640
:1031D000FFF7DFFF70BD0000CCC3000834012242BE
:1031E00098812342480000202DE9F04107460D4612
:1031F00016461C460121084601F0F1F8384602F057
:10320000F7FB34480480344805604660102032499A
:1032100088600846C4600020086180204861002062
:103220008861C86108624FF480504862002088625B
:10323000384602F07FFC01220221384602F0B1FC40
:10324000BDE8F081F8B506460C461546F0B28DF89B
:1032500000008DF801408DF8025001208DF8030028
:10326000684600F044FDF8BD10B504460021204634
:1032700002F08BFC17480188204602F09BFC0121DC
:10328000204602F082FC10BD10B514A008F090FAA0
:103290004FF4007002F0B3FCD0B14FF4007002F0B4
:1032A000C2FC4FF4806002F0BEFC4FF4007002F0EC
:1032B00087FC18B14FF4007002F096FC00BF80212B
:1032C000074801F04CFA0128F9D0012005490860AF
:1032D00010BD000050000020E81400206400000031
:1032E000003001409881234208B50121082001F0F7
:1032F00083F8C020ADF8000010208DF803000320F3
:103300008DF802006946904800F0BAFDC0218E4851
:1033100000F063FE08BD10B58B48006820F07040D7
:10332000894908600846006840F040500860012064
:10333000864908608649C1F89801042000F0BBFB6B
:10334000002082490860042000F0B5FB002080497D
:10335000C1F8980110BD10B57B48006820F070409E
:10336000794908600846006840F040500860002035
:103370007649091F08607649C1F89C01042000F0D5
:103380009AFB01207149091F08607149C1F89C012D
:10339000042000F090FB10BD10B500246A480068BE
:1033A00020F07040684908600846006840F000401E
:1033B000086001206549086000F07DFB0120644938
:1033C000C1F8980100F077FB07E0601CC4B2FA2C4A
:1033D00003DDFFF7C0FF012010BD5C4880380068A6
:1033E0000028F2D15949091F086000BFF4E710B561
:1033F00000205649091F08605348006820F07040BB
:10340000514908600846006840F0405008600020BC
:103410004F49C1F89C01022000F04DFB01204B49AF
:10342000091F0860022000F046FB00204849C1F84F
:10343000980110BD10B500204449091F086042489A
:10344000006820F07040404908600846006840F07D
:103450004050086001203E49C1F89C01022000F064
:103460002AFB01203949091F0860022000F023FBD4
:1034700000203749C1F8980110BD70B504463248A4
:10348000006820F07040304908600846006840F04D
:103490004050086000202D49091F086000251DE0EC
:1034A000E00918B101202949086002E000202749FD
:1034B00008606006040E022000F0FDFA0120234996
:1034C000091F0860022000F0F6FA00202049C1F828
:1034D0009801022000F0EFFA681CC5B2082DDFDB6E
:1034E00070BD70B5054600241748006820F0704094
:1034F000154908600846006840F000400860002652
:1035000017E000201149091F0860022000F0D3FADB
:1035100001200F49C1F898016006040E0B4880385D
:10352000006808B1601CC4B2012000F0C4FA701C2D
:10353000C6B2082EE5DB15B9FFF77CFF01E0FFF707
:1035400056FF204670BD0000000C01409C812142C6
:103550000080214208B507208DF8000001208DF879
:1035600001008DF802008DF80300684600F0BFFBF3
:1035700008BD0EB50121092000F03EFFFFF7EAFF6C
:103580000220ADF8080004208DF80B0002A91248B3
:1035900000F076FC0121084600F088FD0220009032
:1035A00000208DF804000C208DF8050001208DF816
:1035B0000600684602F03EFC0EBD10B5022002F087
:1035C0009FFC40B101200549087005A008F0F0F803
:1035D000022002F0A6FC10BD000C014052000020A9
:1035E0006B657970726573730A00000070B50446EC
:1035F00000F036F9B42000F03FF900F039F9204628
:1036000000F03AF900F034F900F02AF9B52000F0A2
:1036100033F900F02DF9012000F034F9054600F0EF
:1036200023F9284670BD70B505460C4600F018F920
:10363000B42000F021F900F01BF9284600F01CF935
:1036400000F016F9204600F017F900F011F900F02B
:103650000BF970BD10B500F01BF901212B20FFF70D
:10366000E2FF01212C20FFF7DEFF00212D20FFF7D4
:10367000DAFF00212E20FFF7D6FF01212F20FFF7D0
:10368000D2FF01213020FFF7CEFFFF213120FFF7CD
:10369000CAFF02213220FFF7C6FF0F214120FFF7AA
:1036A000C2FF0A214220FFF7BEFF0F214320FFF790
:1036B000BAFF0A214420FFF7B6FF0F214520FFF78C
:1036C000B2FF0A214620FFF7AEFF0F214720FFF788
:1036D000AAFF0A214820FFF7A6FF0F214920FFF784
:1036E000A2FF0A214A20FFF79EFF0F214B20FFF780
:1036F0009AFF0A214C20FFF796FF0F214D20FFF77C
:1037000092FF0A214E20FFF78EFF0F214F20FFF777
:103710008AFF0A215020FFF786FF0F215120FFF773
:1037200082FF0A215220FFF77EFF0F215320FFF76F
:103730007AFF0A215420FFF776FF0F215520FFF76B
:1037400072FF0A215620FFF76EFF0F215720FFF767
:103750006AFF0A215820FFF766FF04215D20FFF76A
:1037600062FF0C215E20FFF75EFF10BD2DE9F041E6
:10377000FF2737480078012854D1002034490870C9
:1037800000260120FFF732FF04020020FFF72EFF82
:103790000443002505E00120A840204000B1761C2C
:1037A0006D1C0C2DF7DB012E3BD104F0010008B19C
:1037B0002A2737E004F0020008B1372732E004F08E
:1037C000040008B134272DE004F0080008B13127C7
:1037D00028E004F0100008B1302723E004F02000B6
:1037E00008B138271EE004F0400008B1352719E081
:1037F00004F0800008B1322714E004F4807008B1AE
:1038000023270FE004F4007008B139270AE004F41C
:10381000806008B1362705E004F4006010B133275A
:1038200000E000BF3846BDE8F08170B5FFF79EFFAD
:103830000446312C08DB392C06DC06480078001BD6
:10384000C5B20448047000E00025284670BD0000A1
:10385000520000205300002010B5FFF745FD10BDB9
:1038600010B5FFF758FD10BD10B5FFF774FD10BD82
:1038700010B5FFF791FD10BD10B504462046FFF7C7
:10388000FCFD10BD10B504462046FFF72AFE10BD12
:1038900010B5FFF76EFE10BD08B526208DF80000AC
:1038A00001208DF801008DF802008DF803006846B4
:1038B00000F01DFA08BD00B585B00121042000F01C
:1038C0009BFD0121480400F0A4FD0420ADF8100088
:1038D00018208DF8130003208DF8120004A9654804
:1038E00000F0CEFA0820ADF8100004208DF8130087
:1038F00004A9604800F0C4FA4FF41650009000206C
:10390000ADF80400ADF80600ADF80800ADF80C0005
:103910000C20ADF80A006946574800F09AFFFFF7FF
:10392000BBFF012240F22551534801F02AF8012142
:10393000514801F01AF805B000BD70B504460D46B7
:103940002946204601F07EF800BF8021204601F084
:10395000E7F80028F9D070BD2DE9F04107460D4683
:103960001646002405E0295D3846FFF7E6FF601C97
:10397000C4B2B442F7DB00BF4021384601F0D0F8B2
:103980000028F9D0BDE8F08170B506460C46002548
:1039900000BF615D3046FFF7D0FF6D1C605D002801
:1039A000F7D100BF4021304601F0BAF80028F9D025
:1039B00070BD2DE9F04105460C46260AE7B23146B6
:1039C000284601F03FF800BF8021284601F0A8F802
:1039D0000028F9D03946284601F034F800BF80218C
:1039E000284601F09DF80028F9D0BDE8F08110B517
:1039F00040F22551204801F0A9F818B11E4801F005
:103A000025F8C4B2742C08D11C48006828B91B489A
:103A10000068401C1949086024E018480068002824
:103A200020DD1648006808280FDA15481349096890
:103A3000405CA04205D111480068401C0F49086055
:103A400010E000200D4908600CE00C4800680A28CE
:103A500008DA0B4809490968445408480068401CC2
:103A600006490860054800680A2802D10020034979
:103A7000086010BD000801400044004060000020C4
:103A80005400002010B56FF0040000F07AF92E48C1
:103A900000682E49B0FBF1F02D4908700846007807
:103AA00000EB4001C1EBC0104FF6FF7101EAC0000E
:103AB0002849088010BD0146254A12784A434FF034
:103AC000E0235A6100229A611A46126942F001020B
:103AD0001A6100BF4FF0E022106900F001021AB134
:103AE00000F48032002AF5D04FF0E022126922F073
:103AF00001024FF0E0231A6100229A6170470146EB
:103B0000144A12884A434FF0E0235A6100229A6116
:103B10001A46126942F001021A6100BF4FF0E0221A
:103B2000106900F001021AB100F48032002AF5D0C9
:103B30004FF0E022126922F001024FF0E0231A61F7
:103B400000229A61704700002000002000127A00D5
:103B5000640000206600002030BF704772B67047D6
:103B600062B67047014600BF704700BF494A1288DD
:103B700002F04002002AF9D0C2B2464B1B1D1A8047
:103B8000704710B586B00446012144F2040000F0ED
:103B900033FC4FF40070ADF8140003208DF81600CC
:103BA00018208DF8170005A93B4800F069F94FF47B
:103BB0008060ADF8140004208DF8170005A9364880
:103BC00000F05EF925208DF8000003208DF801003B
:103BD0008DF8020001208DF80300684600F087F898
:103BE00001940020ADF80800ADF80A00ADF80C0013
:103BF000ADF810000C20ADF80E0001A9254800F02A
:103C000028FE012240F22551224800F0BAFE01218F
:103C1000204800F0AAFE06B010BD10B540F22551B4
:103C20001C4800F093FF10B31A4800F00FFFC4B215
:103C30001A48008800F40040C8B91848008800F409
:103C4000804060B10A2C03D000201449088020E095
:103C50001248008840F400401049088019E00D2CFB
:103C600006D10E48008840F480400C49088010E0DE
:103C70000A480088C0F30D0009490C540748008821
:103C8000401C0649088008460088C72801DD00203E
:103C9000088010BD00380140000801406C00002081
:103CA000141500200948804709480047FEE7FEE751
:103CB000FEE7FEE7FEE7FEE7FEE7FEE7FEE7FEE7DC
:103CC00004480549054A064B70470000AB07000849
:103CD0003101000868C0002068C6002068C20020CA
:103CE00068C2002031490143314A1160704770B504
:103CF000002100230F22C47804B32D4C246804F45F
:103D0000E064C4F5E064210AC1F10403CA404478C8
:103D100004FA03F18478144021430901254C067804
:103D2000A155047804F01F050124AC4005786D11FD
:103D3000AD0005F1E025C5F8004109E0047804F084
:103D40001F050124AC401C4D0678761145F826402D
:103D500070BD1A4A0A400243154B1B1F1A60704778
:103D600039B1134A121D12680243114B1B1D1A6010
:103D700006E00F4A121D126882430D4B1B1D1A608C
:103D80007047042808D14FF0E021096941F004018F
:103D90004FF0E022116107E04FF0E021096921F0C6
:103DA00004014FF0E0221161704700000000FA05A5
:103DB0000CED00E000E400E080E100E080FFFF1F88
:103DC00010B50446CC48844208D10121042000F0FB
:103DD0002DFB0021042000F029FB46E0C748844267
:103DE00008D10121082000F021FB0021082000F06B
:103DF0001DFB3AE0C248844208D10121102000F0A6
:103E000015FB0021102000F011FB2EE0BD4884427C
:103E100008D10121202000F009FB0021202000F022
:103E200005FB22E0B848844208D10121402000F07F
:103E3000FDFA0021402000F0F9FA16E0B348844270
:103E400008D10121802000F0F1FA0021802000F04B
:103E5000EDFA0AE0AE48844207D10121801500F056
:103E6000E5FA0021A01500F0E1FA10BD10B501211E
:103E7000084600F0DBFA0021012000F0D7FA10BD5F
:103E80002DE9F041024600250026002000230024F1
:103E9000002791F803C00CF00F0591F803C00CF057
:103EA000100CBCF1000F03D091F802C04CEA0505DC
:103EB00091F800C0BCF1000F31D0146800202BE055
:103EC0004FF0010C0CFA00F3B1F800C00CEA030645
:103ED0009E4220D183004FF00F0C0CFA03F7BC4335
:103EE00005FA03FC4CEA040491F803C0BCF1280F66
:103EF00006D14FF0010C0CFA00FCC2F814C00AE025
:103F000091F803C0BCF1480F05D14FF0010C0CFA39
:103F100000FCC2F810C0401C0828D1D31460B1F8CE
:103F200000C0BCF1FF0F34DD546800202EE000F12A
:103F3000080C4FF0010808FA0CF3B1F800C00CEAC5
:103F400003069E4221D183004FF00F0C0CFA03F7B9
:103F5000BC4305FA03FC4CEA040491F803C0BCF12D
:103F6000280F05D100F1080C08FA0CF8C2F81480EB
:103F700091F803C0BCF1480F07D100F1080C4FF0D5
:103F8000010808FA0CF8C2F81080401C0828CED3AB
:103F90005460BDE8F0814FF6FF710180022181700D
:103FA0000421C17070470246002093680B400BB19A
:103FB000012000E0002070470146886880B2704709
:103FC00002460020D3680B400BB1012000E0002026
:103FD00070470146C86880B270470161704741610F
:103FE00070470AB1016100E041617047C1607047EC
:103FF0004FF480320A438261816182618269826901
:10400000704702460020434B18684FF680731840F3
:1040100040EA021008433F4B186070473E49C861B0
:104020007047F0B50A46002300240021002500F067
:104030000046B6F1004F02D1364EF16901E0354E2F
:104040007168C0F3034583B200F44016B6F5401F13
:1040500008D121F070612F4E766826F070662D4FE2
:104060007E6012E000F48016B6F5801F06D10326AC
:1040700006FA05F4A14341F0706106E0460D3601F1
:1040800003FA06F6B14341F0706122B1460D3601E4
:1040900003FA06F6314300F00046B6F1004F02D1B4
:1040A0001C4EF16101E01B4E7160F0BD30B5002285
:1040B0008B071C0F0F2303FA04F2164B08338C10E6
:1040C00053F824309343134C08348D1044F82530B2
:1040D00023468C1053F824308C07240F00FA04F484
:1040E00023430C4C08348D1044F8253030BD0A4968
:1040F000DC3108607047000000080140000C0140FE
:10410000001001400014014000180140001C014053
:10411000002001400000014000002042DF4800680C
:1041200040F00100DD49086008464068DC4908406D
:10413000DA49486008460068DA490840D74908600B
:104140000846006820F4802008600846406820F493
:10415000FE0048604FF41F0088607047CF4909682F
:1041600021F48031CD4A11601146096821F4802183
:104170001160B0F5803F03D0B0F5802F0ED106E07E
:10418000C649096841F48031C44A116007E0C34957
:10419000096841F4A021C14A116000E000BF00BFDE
:1041A000704710B501460022002300204A11012A61
:1041B00002D1BA4C236806E0022A02D1B74C236A26
:1041C00001E0B64C636A01F01F02012494401C40D8
:1041D0000CB1012000E0002010BD38B50020009097
:1041E0000024002500BF3120FFF7DBFF05460098C3
:1041F000401C00900098B0F5A06F01D0002DF2D0C7
:104200003120FFF7CEFF08B1012400E00024204652
:1042100038BD01460020A14A106820F0F80040EAAD
:10422000C10010607047A049086070470246002036
:104230009A4B586820F47C1042EA01031843974BCC
:104240005860704798490866704701460020934AB5
:10425000506820F003000843506070478F48406862
:1042600000F00C007047014600208C4A506820F096
:10427000F00008435060704701460020874A5068AC
:1042800020F4E06008435060704701460020834AF4
:10429000506820F4605040EAC1005060704729B176
:1042A0007E4A527A02437D4B5A7204E07B4A527A2C
:1042B00082437A4B5A7270477B49D8310860704705
:1042C00001460020754A506820F440400843506081
:1042D00070470021714A20321170704A82F8201014
:1042E000012802D004280AD104E001216B4A2032BF
:1042F000117005E00521694A2032117000E000BF0D
:1043000000BF70476949086070476449096A014302
:10431000624A11627047654944390860704730B598
:1043200000210022002400235C4D6D6805F00C0183
:1043300021B1042905D0082923D105E05C4D056091
:1043400022E05B4D05601FE0544D6D6805F470126E
:10435000524D6D6805F48034022505EB92421CB97C
:10436000544D554305600BE04C4D6D6805F4003528
:104370001DB1504D5543056002E04D4D554305605C
:1043800002E04B4D056000BF00BF444D6D6805F075
:10439000F0010909484D6B5C0568DD4045603F4D03
:1043A0006D6805F4E061090A434D6B5C4568DD40CA
:1043B00085603A4D6D6805F46051C90A3E4D6B5CED
:1043C0004568DD40C560354D6D6805F44041890B99
:1043D0003A4D6B5CC568B5FBF3F5056130BD29B19D
:1043E0002E4A526902432D4B5A6104E02B4A52690E
:1043F00082432A4B5A61704729B1284A9269024385
:10440000264B9A6104E0254A92698243234B9A61C4
:10441000704729B1214AD2690243204BDA6104E096
:104420001E4AD26982431D4BDA61704729B11B4A8B
:10443000D2680243194BDA6004E0184AD26882431A
:10444000164BDA60704729B1144A12690243134BC4
:104450001A6104E0114A12698243104B1A617047D5
:1044600012494039086070470F49C86470470B49CA
:10447000C87170470948406A40F080700749486237
:10448000704701460020054A92680A400AB101209F
:1044900000E0002070470149887270470010024018
:1044A0000000FFF8FFFFF6FE000042428004424297
:1044B00000127A0000093D006E0000207E000020FE
:1044C00010B50446BE48844208D101218014FFF78C
:1044D000ADFF0021A014FFF7A9FF16E0B948844200
:1044E00008D101210014FFF7AEFF00212014FFF7CF
:1044F000AAFF0AE0B448844207D10121C013FFF7A4
:10450000A2FF0021E013FFF79EFF10BD10B50022AF
:10451000028802F441520B884C8823438C88234341
:10452000CC8823430C8923434C8923438C89234320
:10453000CC8923431A430280838B4FF2FF742340BC
:1045400083830B8A038210BD2DE9F04F85B00546A9
:104550000C464FF0000902274FF000084FF0010B06
:104560000026B246A88B4FF240010840A8830220E3
:104570002884B5F81C90A068022801D100BF38E05B
:10458000A08810B94FF0010B01E04FF0020B8D48ED
:10459000854200D100E000BF6846FFF7C0FEDDF8AD
:1045A00000A0E088B0F5007F0AD14FEA1A2000EBA6
:1045B00080004000A168B0FBF1F0401D86B20BE026
:1045C0004FEA4B10BAFBF0F000EB80004000A1680E
:1045D000B0FBF1F0401D86B20A20B6FBF0F606F003
:1045E0000108A6EB0800C0F34F074FF6FF7000EA82
:1045F0000828022F01DBFF2F02DD02274FF0000801
:10460000E08840EA080038432884A088A18908434C
:10461000618808432188084340F4006040EA0909A2
:10462000A5F81C9005B0BDE8F08F00210180418005
:104630008180C180018141818181C1810721018205
:1046400070470021018041808180C180022181600A
:1046500000218181704721B1028842F0400202802E
:1046600004E002884FF6BF731A400280704721B100
:10467000828B42F48062828304E0828B4FF6FF33A8
:104680001A408283704730B5002400230C110125A5
:10469000A540ABB21AB185881D43858002E08588AC
:1046A0009D43858030BD1AB183880B43838002E02F
:1046B00083888B4383807047818170470146888956
:1046C00070474FF6FF62914204D0028842F4807234
:1046D000028004E002884FF6FF631A4002807047B0
:1046E00021B1828842F00402828004E082884FF681
:1046F000FB731A408280704702884FF2FF731A40A2
:10470000028002880A4302807047018841F4805188
:104710000180704721B1028842F40052028004E017
:1047200002884DF6FF731A4002807047024600204F
:10473000012901D0108B00E0908A70470146088A59
:104740007047B1F5804F04D1028842F48042028064
:1047500004E002884BF6FF731A400280704702465D
:10476000002013890B400BB1012000E000207047AE
:10477000CA4302817047F0B502460020002400239E
:10478000002501F00F070126BE40B4B20B1101262F
:104790009E40B3B2968806EA03051689264016B1F4
:1047A0000DB1012000E00020F0BD10B5002201F0A5
:1047B0000F040123A3409AB2D343038110BD00002C
:1047C0000030014000380040003C004010B5044675
:1047D000FB48844209D101218803FFF727FE00210D
:1047E0004FF48040FFF722FE32E0F648844209D1C0
:1047F00001214804FFF727FE00214FF40030FFF7A6
:1048000022FE25E0F048844209D101218804FFF707
:104810001AFE00214FF48020FFF715FE18E0EB4848
:10482000844209D10121C804FFF70DFE00214FF495
:104830000020FFF708FE0BE0E548844208D1012183
:104840000805FFF700FE00214FF48010FFF7FBFD85
:1048500010BD2DE9F04786B005460E460024A2465D
:1048600000BFA1460027B08900B100BF2F462C8AA7
:104870004CF6FF700440F08804432C82AC894EF65D
:10488000F3100440B0883189084371890843044318
:10489000AC81AC8A4FF6FF400440B0890443AC823F
:1048A00001A8FFF73CFDC648874202D1DDF810A001
:1048B00001E0DDF80CA0A88900F4004040B10AEB4B
:1048C000CA0000EB0A1031684900B0FBF1F807E0BC
:1048D0000AEBCA0000EB0A1031688900B0FBF1F85E
:1048E0006420B8FBF0F004012009642101FB108969
:1048F000A88900F4004040B1322000EBC900B0FBB1
:10490000F1F000F00700044308E0322000EB09104A
:104910006421B0FBF1F000F00F0004432C8106B0DD
:10492000BDE8F0874FF41651016000218180C180FD
:1049300001810C21418100218181704710B502461F
:104940000020108A4FF2FF0318400B884C88234345
:104950008C882343CC8823431843108210BD002148
:10496000018041808180C180704721B1828942F4F9
:104970000052828104E082894DF6FF731A408281E1
:104980007047F0B50346002400260025002040F6BD
:104990006A17B94200D100BF1846C1F3421401F0B2
:1049A0001F06012707FA06F5012C01D10C3004E09F
:1049B000022C01D1103000E014301AB107682F43E7
:1049C000076002E00768AF430760F0BD1AB1838A51
:1049D0000B43838202E0838A8B4383827047028A7F
:1049E0004FF6F0731A400282028A0A43028270472D
:1049F00082894FF2FF731A40828182890A43828141
:104A0000704721B1828942F00202828104E08289EA
:104A10004FF6FD731A4082817047028A4FF6DF73AA
:104A20001A400282028A0A430282704721B1028A36
:104A300042F48042028204E0028A4BF6FF731A407D
:104A400002827047C1F3080282807047014688885D
:104A5000C0F308007047818941F0010181817047EE
:104A6000028BD2B20283028B42EA01220283704798
:104A7000028B02F47F420283028B0A430283704757
:104A800021B1828A42F02002828204E0828A4FF6BB
:104A9000DF731A408282704721B1828A42F010028D
:104AA000828204E0828A4FF6EF731A408282704756
:104AB00021B1828A42F00802828204E0828A4FF6A3
:104AC000F7731A408282704721B1828942F4004212
:104AD000828103E08289C2F30E028281704721B194
:104AE000828A42F40062828204E0828A4FF2FF737B
:104AF0001A4082827047828A4FF6FB731A40828284
:104B0000828A0A438282704721B1828A42F002027D
:104B1000828204E0828A4FF6FD731A4082827047D7
:104B200002460020B1F5007F00D100BF13880B4082
:104B30000BB1012000E00020704701F40072B2F5D3
:104B4000007F00D100BFCA430280704770B50246A3
:104B5000002400230025002040F66A16B14200D14F
:104B600000BFC1F3421501F01F03012606FA03F34B
:104B7000012D02D19689334006E0022D02D1168A1A
:104B8000334001E0968A33400C12012606FA04F401
:104B90001688344013B10CB1012000E0002070BD34
:104BA00010B50022002340F66A14A14200D100BFD4
:104BB0000A1201249440A3B2DC43048010BD00001B
:104BC000003801400044004000480040004C0040D4
:104BD0000050004010B50446FE48844208D101212F
:104BE000C014FFF723FC0021E014FFF71FFCC4E012
:104BF000B4F1804F08D101210846FFF724FC0021C1
:104C00000120FFF720FCB8E0F348844208D10121DD
:104C10000220FFF718FC00210220FFF714FCACE093
:104C2000EE48844208D101210420FFF70CFC00214A
:104C30000420FFF708FCA0E0E948844208D10121E4
:104C40000820FFF700FC00210820FFF7FCFB94E0A0
:104C5000E448844208D101211020FFF7F4FB002131
:104C60001020FFF7F0FB88E0DF48844208D10121E3
:104C70002020FFF7E8FB00212020FFF7E4FB7CE089
:104C8000DA48844208D101214014FFF7CFFB00210C
:104C90006014FFF7CBFB70E0D548844209D10121B5
:104CA000C804FFF7C3FB00214FF40020FFF7BEFB51
:104CB00063E0D048844209D101210805FFF7B6FB23
:104CC00000214FF48010FFF7B1FB56E0CA48844240
:104CD00009D101214805FFF7A9FB00214FF400107D
:104CE000FFF7A4FB49E0C548844208D101214020D8
:104CF000FFF7A9FB00214020FFF7A5FB3DE0C048DE
:104D0000844208D101218020FFF79DFB00218020F3
:104D1000FFF799FB31E0BB48844208D1012180159F
:104D2000FFF791FB0021A015FFF78DFB25E0B648AA
:104D3000844209D101210804FFF778FB00214FF4D8
:104D40008030FFF773FB18E0B048844209D101219D
:104D50004804FFF76BFB00214FF40030FFF766FBC0
:104D60000BE0AB48844208D101218804FFF75EFBC9
:104D700000214FF48020FFF759FB10BD002202886C
:104D8000944B98420ED0994B98420BD0B0F1804F83
:104D900008D0914B984205D0904B984202D0904B4E
:104DA000984204D14FF68F731A404B881A438D4BAB
:104DB000984207D08C4B984204D04FF6FF431A40DC
:104DC000CB881A4302808B8883850B880385814BAF
:104DD00098420BD0854B984208D08B4B984205D017
:104DE0008A4B984202D08A4B984201D10B7A0386B3
:104DF00001238382704770B5002400220023058CB4
:104E00004FF6FE7635400584028C8388048B4FF67E
:104E10008F752C40B51E2C400D882C43751E2A40E2
:104E20000D892A434D882A436A4DA8420BD06F4D05
:104E3000A84208D0744DA84205D0744DA84202D0B3
:104E4000734DA84213D14FF6F7752A404D892A4376
:104E50004FF6FB752A408D882A434FF6FF652B409D
:104E60004FF6FF552B408D892B43CD892B438380F3
:104E70000483CD888586028470BD70B5002400222D
:104E80000023058C4FF6EF7635400584028C83882D
:104E9000048B48F6FF752C404FF6FF452C400D88DB
:104EA0004FF6FF7606EA05252C434FF6DF752A40BC
:104EB0000D8906EA05152A434D8806EA05152A4399
:104EC000444DA84202D0494DA8421DD14FF67F75EE
:104ED0002A404D894FF6FF7606EA05152A434FF61C
:104EE000BF752A408D8806EA05152A434FF6FF351F
:104EF0002B404FF2FF752B408D8906EA85052B4329
:104F0000CD8906EA85052B4383800483CD880587F8
:104F1000028470BD70B5002400220023058C4FF67A
:104F2000FF6635400584028C8388848B4FF68F752D
:104F30002C404FF6FC752C400D882C434FF6FF5546
:104F40002A400D894FF6FF7606EA05252A434D884B
:104F500006EA05252A431F4DA84202D0234DA84248
:104F60001DD14FF2FF752A404D894FF6FF7606EAB4
:104F700005252A434FF6FF352A408D8806EA052588
:104F80002A434EF6FF752B404DF6FF752B408D8959
:104F900006EA05152B43CD8906EA05152B438380C8
:104FA0008483CD888587028470BD70B5002200237C
:104FB0000024058C4EF6FF7635400584038C8488EA
:104FC000828B48F6FF752A404FF6FF452A400D8830
:104FD00020E00000002C01400004004000080040D8
:104FE000000C00400010004000140040003401405C
:104FF000004C0140005001400054014000180040A6
:10500000001C0040002000400040014000440140DE
:10501000004801404FF6FF7606EA05252A434DF683
:10502000FF752B400D8906EA05352B434D8806EAAE
:1050300005352B43FA4DA84202D0FA4DA84208D1BB
:105040004BF6FF752C408D894FF6FF7606EA8515E5
:105050002C4384808283CD88A0F84050038470BDA7
:10506000828B4FF2FF331A408283828B4FF6FF739D
:1050700003EA01231A4382837047F0B50C461546B4
:10508000002200210026078C4EF6FF7C07EA0C0761
:105090000784828B018C4FF6FF7707EA043640F6CF
:1050A000FF473A404FF6FF7707EA05273A434FF6A6
:1050B000FF7707EA03373A43D94FB8420ED0D94FAA
:1050C000B8420BD0B0F1804F08D0D74FB84205D0CE
:1050D000D64FB84202D0D64FB84206D14DF6FF7730
:1050E000394046F48057394305E047F6FF573940C9
:1050F00044F48057394382830184F0BD828B4FF69C
:10510000F3731A408283828B0A4382837047F0B51F
:105110000C461546002200210026078C4FF6FF6C36
:1051200007EA0C070784828B018C4FF6FF7707EAAA
:1051300004264FF60C773A404FF6FF7707EA03173D
:105140002F433A43B64FB8420ED0B64FB8420BD0B9
:10515000B0F1804F08D0B44FB84205D0B34FB84239
:1051600002D0B34FB84206D14FF6FF57394046F44C
:105170008077394305E04FF2FF57394044F4807798
:10518000394382830184F0BD028B4FF2FF331A4012
:105190000283028B4FF6FF7303EA01231A43028353
:1051A0007047F0B50C461546002200210026078CFA
:1051B0004FF6EF7C07EA0C070784028B018C4FF651
:1051C000FF7707EA041640F6FF473A404FF6FF77AD
:1051D00007EA03373A434FF6FF7707EA05273A43D2
:1051E0008F4FB8420ED08F4FB8420BD0B0F1804FE6
:1051F00008D08D4FB84205D08C4FB84202D08C4FAA
:10520000B84206D14FF6DF77394046F010073943F0
:1052100005E04FF65F77394044F0100739430283C9
:105220000184F0BD028B4FF6F3731A400283028BA8
:105230000A4302837047F0B50C4615460022002150
:10524000068C4FF6FE773E400684028B018C4FF6AB
:105250000C7632407E1C06EA03162E433243704E13
:10526000B0420ED06F4EB0420BD0B0F1804F08D09C
:105270006D4EB04205D06D4EB04202D06C4EB04281
:1052800006D14FF6FD76314044F00106314305E08A
:105290004FF6F576314044F0010631430283018434
:1052A000F0BD70B505460C465D4885420ED05D48A0
:1052B00085420BD0B5F1804F08D05B48854205D0C0
:1052C0005A48854202D05A48854200D100E000BFCA
:1052D000208850B92389A28861882846FFF7ABFF50
:1052E000E1882846FFF79EFF25E0208804280AD1A0
:1052F0002389A28861882846FFF753FFE188284662
:10530000FFF742FF17E0208808280AD12389A288E6
:1053100061882846FFF7FBFEE1882846FFF7EEFE8E
:1053200009E02389A28861882846FFF7A6FEE18864
:105330002846FFF795FE70BD2DE9F04105460C4665
:1053400000260127608808B9022600E00026A08810
:10535000012801D1022700E001272088A0B9238974
:10536000A28861882846FFF766FFE1882846FFF794
:1053700059FF23893A4631462846FFF712FFE18854
:105380002846FFF701FF13E02389A2886188284699
:10539000FFF707FFE1882846FFF7F6FE23893A4624
:1053A00031462846FFF747FFE1882846FFF73AFFD6
:1053B000BDE8F0810A884B881A438B881A43CB8852
:1053C0001A430B891A434B891A438B891A43A0F855
:1053D000442070474FF6FF71818000210180C18019
:1053E0004180017270470021018041808180C1802D
:1053F000018141818181C18170470021018041800B
:10540000012181800021C18001817047002101803C
:1054100041808180C180018141818181704700008C
:10542000002C01400034014000040040000800400E
:10543000000C004021B1028842F00102028004E029
:1054400002884FF6FE731A400280704731B1B0F8FF
:10545000442042F40042A0F8442005E0B0F8442083
:10546000C2F30E02A0F8442070471AB183890B439F
:10547000838102E083898B438381704781827047F7
:1054800041EA0203A0F8483070471AB183890B4300
:10549000838102E083898B438381704701894FF6C2
:1054A000F8721140018170470A46002101894FF6C8
:1054B0008F73194011430181704730B504460D4682
:1054C00029462046FFF7F0FF208940F007002081A1
:1054D00030BD2DE9F04104460D4616461F46602DAD
:1054E00006D13B46012231462046FFF75AFE05E031
:1054F0003B46012231462046FFF79DFE29462046C5
:10550000FFF7D2FF208940F007002081BDE8F0813D
:1055100030B50C4600210189C9B24FF6FF7505EA86
:105520000325154325432943018130BD2DE9F04171
:1055300005460E4617469846002443463A463146ED
:105540002846FFF7E5FF2C894FF6F870044044F039
:1055500007044FF68F70044044F070042C81BDE8BE
:10556000F081F0B504460D4616461F463B463246CE
:1055700029462046FFF7CCFF208940F48040208157
:10558000F0BD0185828270470A46002101884FF6EE
:105590008F731940114301807047F0B50C461546D2
:1055A0001E460021002200230189028B038C4FF646
:1055B000F877394021434FF6FC473A4040F2011753
:1055C0003A434FF6DD773B404FF6FF7707EA061781
:1055D0002F433B43018102830384F0BD0A4600212F
:1055E000018B4FF68F7319401143018370470A46B0
:1055F0000021018B48F6FF7319404FF6FF7303EA51
:1056000002231943018370470A460021818B4FF61C
:105610008F7319401143818370470A460021818BA3
:1056200048F6FF7319404FF6FF7303EA022319434C
:105630008183704721B1028842F08002028004E039
:1056400002884FF67F731A400280704721B182882A
:1056500042F00402828004E082884FF6FB731A4015
:105660008280704721B1828842F00802828004E083
:1056700082884FF6F7731A408280704721B1828882
:1056800042F00102828004E082884FF6FE731A40E5
:10569000828070470A460021018B4FF6F77319404C
:1056A0001143018370470A460021018B4FF2FF73BB
:1056B00019404FF6FF7303EA022319430183704731
:1056C0000A460021818B4FF6F773194011438183FD
:1056D00070470A460021818B4FF2FF7319404FF645
:1056E000FF7303EA02231943818370470A460021AE
:1056F000018B4FF6FB7319401143018370470A4633
:105700000021018B4FF6FF3319404FF6FF7303EA78
:1057100002231943018370470A460021818B4FF60B
:10572000FB7319401143818370470A460021818B26
:105730004FF6FF3319404FF6FF7303EA0223194374
:10574000818370470A460021018B4FF67F73194011
:105750001143018370470A460021018BC1F30E01FA
:105760004FF6FF7303EA02231943018370470A4689
:105770000021818B4FF67F7319401143818370475D
:105780000A460021818BC1F30E014FF6FF7303EA35
:1057900002231943818370470A460021018C4FF68A
:1057A000FD7319401143018470470A460021018CA2
:1057B0004FF6F77319401143018470470A460021E0
:1057C000018C4FF6DF7319404FF6FF7303EA0213A3
:1057D0001943018470470A460021018C4FF67F73FC
:1057E00019404FF6FF7303EA02131943018470470F
:1057F0000A460021018C4FF6FF5319404FF6FF7304
:1058000003EA02231943018470470A460021018CF0
:105810004FF2FF7319404FF6FF7303EA0223194357
:10582000018470470A460021018C4DF6FF73194030
:105830004FF6FF7303EA023319430184704730B512
:10584000002301248C40A3B2048C9C430484048C68
:1058500002FA01F5ADB22C43048430BD30B500230B
:1058600004248C40A3B2048C9C430484048C02FA6C
:1058700001F5ADB22C43048430BD70B50346002061
:1058800000241846183001258D40ACB21D8CA5436C
:105890001D8409B1082909D100EB6100056825F0D4
:1058A000700505600568154305600EE00D1FC5F322
:1058B0004E052844056825F4E045056005684FF667
:1058C000FF7606EA02263543056070BD21B10288E5
:1058D00042F00202028004E002884FF6FD731A4093
:1058E0000280704721B1028842F00402028004E085
:1058F00002884FF6FB731A400280704721B18288FC
:1059000042F08002828004E082884FF67F731A4062
:105910008280704702884FF6F7731A40028002882F
:105920000A430280704782884FF68F731A40828044
:1059300082880A438280704702894FF6F8731A40C2
:10594000028102890A430281704702894FF67F7300
:105950001A40028102890A4302817047818470479C
:1059600081857047818670470187704781877047BE
:10597000A0F84010704702884FF6FF431A4002809B
:1059800002880A43028070470146888E70470146AC
:10599000088F70470146888F70470146B1F8400074
:1059A00070470146888C70470146088D7047024653
:1059B0000020138A0B400BB1012000E0002070474B
:1059C000CA430282704730B50246002000230024FB
:1059D000158A05EA0103958905EA010413B10CB1A2
:1059E000012000E0002030BDCA4302827047000061
:1059F00001684FF6FE7211400160002101604160B4
:105A00008160C1608D49884208D18C490839496854
:105A100041F00F01894A083A51608AE08749143100
:105A2000884208D185490839496841F0F001834A24
:105A3000083A51607DE081492831884208D17F4988
:105A40000839496841F470617C4A083A516070E055
:105A50007A493C31884208D178490839496841F48B
:105A60007041764A083A516063E074495031884287
:105A700008D172490839496841F470216F4A083ADF
:105A8000516056E06D496431884208D16B4908394C
:105A9000496841F47001694A083A516049E0674930
:105AA0007831884208D165490839496841F0706108
:105AB000624A083A51603CE06149884206D1011FC0
:105AC000096841F00F01021F116032E05C49143196
:105AD000884208D15A49091F096841F0F001584A23
